:020000040000FA
:08000000803102288731FD2F39
:100F00002F0096019701980199019A019B01080011
:100F1000623031008D008F01910102309300920107
:100F2000080087318027873187319B2787318731B8
:100F30008827873108002000960197019801F0303A
:100F40009100FF309200FF309300FF303E00CE0052
:100F5000FF30C300FF30B800E501C401B901CF0183
:100F6000BA01C501D001FF30BB00FF30C600FF3021
:100F7000D100FF30BC00FF30C700FF30D200083086
:100F8000E800080087319127873120009601161468
:100F90000330F1008A30F0005630890BCD2FF00B72
:100FA000CD2FF10BCD2F200096140330F1008A30A5
:100FB000F0005630890BDA2FF00BDA2FF10BDA2F15
:100FC000200016150330F1008A30F0005630890BEE
:100FD000E72FF00BE72FF10BE72F200096150330DA
:100FE000F1008A30F0005630890BF42FF00BF42F0B
:100FF000F10BF42FC52F8031022820008731C22F3A
:020000040001F9
:0A000E00EC3FFF3F9F3FFF3FFF3F25
:00000001FF
